:0300000002104D9E
:0C104D00787FE4F6D8FD758162020B5C30
:10100400466C6F6F722031203D2030256400466CA1
:101014006F6F722032203D2030256400203025641B
:0510240000202564001E
:100F4900E590540F754800F5497F887E13120F5FAD
:060F5900C2947FE87E0354
:100F5F00E4FDFCC3ED9FEC9E5015E4FBFA0BBB00C8
:0F0F6F00010ABA01F8BB3EF50DBD00010C80E48C
:010F7E002250
:10102900C280C281D2828FA07F0A7E00120F5FC266
:02103900822211
:10103B00D280C281D2828FA07F0A7E00120F5FC244
:02104B008222FF
:0D0F7F007F897E001210297B007A00792204
:100F8C008B4F8A508951AB4FAA50A951120E8160D8
:100F9C00130551E5517002055014F9120E81FF1220
:050FAC00103B80E22271
:100F0F00C0D075D0187F387E001210297F047E0064
:100F1F00120F5F7F061210297F047E00120F5F7F72
:100F2F000C1210297F047E00120F5F7F011210290F
:0A0F3F007F047E00120F5FD0D02265
:0A106500E4F5A0C282C280C281221D
:0B0FB100C3E5499543FFE5489542FE6B
:100FBC00C3EE6480948050057EFF7FFF22D3EF94B4
:100FCC0000EE6480948040057E007F0122E4FEFFE9
:010FDC0022F2
:100B5C00E4F542F543F544F545F546F547F548F51A
:100B6C0049121065120F0FE4F5907552FF75531072
:100B7C00755404F555FB7A00792212085C7F8012BB
:100B8C000F817552FF755310755412E4F555FB7AAD
:100B9C0000793212085C7FC07E001210297B007A2B
:100BAC00007932120F8C7FF47E01120F5F43900F8D
:100BBC00E5905401F54AA290E433B54A04D29580ED
:100BCC00F5E54AF45401F54AA290E433B54A04C25F
:100BDC009580F5D2977F107E27120F5FE590540F0A
:100BEC00754800F549C297C3E5459549FFE544951D
:100BFC0048FE121059C006C007C3E5439549FFE5EE
:100C0C00429548FE121059D005D004D3EF9DEC64E8
:0B0C1C0080F8EE6480984003020D3960
:100C2700C3E5439549FFE5429548FE1210598E4D9D
:100C37008F4E754B00754C01D3E54C954EE54D64D1
:100C470080F8E54B648098504D120F5B120FB1EF9F
:100C57002543F543EE3542F542C3E543940AE542A1
:100C670064809480500B7552FF7553107554208023
:100C7700097552FF7553107554258542558543569E
:100C87007B007A00792212085C120F7F054CE54C35
:100C970070A6054B80A2E590540F754600F5478571
:100CA7004648F549D294E549B5470CE548B54607A6
:100CB700120F49D29480EFC294C3E5439549FFE5EB
:100CC700429548FE1210598E4D8F4E754B00754C4C
:100CD70001D3E54C954EE54D6480F8E54B6480986B
:100CE7004003020E78120F5B120FB1EF2543F54355
:100CF700EE3542F542C3E543940AE54264809480A9
:100D0700500B7552FF75531075542080097552FFAB
:100D17007553107554258542558543567B007A00D7
:100D2700792212085C120F7F054CE54C70A3054B26
:020D3700809F9B
:100D3900C3E5459549FFE5449548FE1210598E4D86
:100D49008F4E754B00754C01D3E54C954EE54D64BE
:100D590080F8E54B6480985065120F5BC3E54995AF
:100D690045FFE5489544FE120FBCEF2545F545EED4
:100D79003544F544C3E545940AE5446480948050BC
:100D89000B7552FF75531075542080097552FF7504
:100D990053107554258544558545567B007A00794D
:100DA9003212085C7FC97E001210297B007A007913
:100DB90032120F8C054CE54C708E054B808AE590FC
:100DC900540F754600F547854648F549D294E549DB
:100DD900B5470CE548B54607120F49D29480EFC2D2
:100DE90094C3E5459549FFE5449548FE1210598E8F
:100DF9004D8F4E754B00754C01D3E54C954EE54D25
:100E09006480F8E54B6480985065120F5BC3E5492F
:100E19009545FFE5489544FE120FBCEF2545F5457C
:100E2900EE3544F544C3E545940AE544648094806D
:100E3900500B7552FF75531075542080097552FF78
:100E49007553107554258544558545567B007A00A0
:100E5900793212085C7FC97E001210297B007A0062
:0F0E69007932120F8C054CE54C708E054B808A48
:090E7800A290E433F54A020BC21A
:100E8100BB010689828A83E0225002E722BBFE026F
:090E9100E32289828A83E49322A2
:10080000E55E2452F8E6055E22784F300702785202
:10081000E475F001120ED9020E812000EB7F2ED27A
:10082000008018EF540F2490D43440D4FF30040BD0
:10083000EF24BFB41A0050032461FFE55F60021586
:100840005F0562E5627002056130070D784FE4755F
:10085000F001120ED9EF020EC7020FDD7403D207AA
:100860008003E4C207F55E8B4F8A508951E4F55F3F
:10087000F561F562E55F60077F2012083B80F57542
:1008800060FFC201C200C202C203C205C206C208A2
:10089000120809FF700D3007057F0012084CAF6287
:1008A000AE6122B4255FC2D5C204120809FF24D06C
:1008B000B40A00501A75F00A785F30D50508B6FF03
:1008C0000106C6A426F620D5047002D20380D924DE
:1008D000CFB41A00EF5004C2E5D204020A4CD20190
:1008E00080C6D20080C0D20280BCD2D580BAD205E8
:1008F00080B47F2012083B2002077401B55F0040DE
:10090000F1120800FF12083B020874D208D20680D8
:1009100095120800FB120800FA120800F94A4B7001
:1009200006791D7A0B7BFF20022EE55F602A7E0090
:100930008E82758300120E9A60060EEE656070F06E
:10094000C2D5EBC0E0EAC0E0E9C0E0EE120A93D005
:10095000E0F9D0E0FAD0E0FB120E81FF60AAEBC014
:10096000E0EAC0E0E9C0E012083BD0E02401F9D0A1
:10097000E03400FAD0E0FBE5600460DCD560D980AB
:10098000877BFF7A0A798FD202809C791080027966
:1009900008C206C2088008D2D5790A8004790AC242
:1009A000D5E560047002F560E4FAFDFEFF12080070
:1009B000FC7B08200113120800FD7B1030000A1296
:1009C0000800FE120800FF7B20EC3382D592D55040
:1009D00013C3E43000069FFFE49EFEE42001039D64
:1009E000FDE49CFCE4CBF8C201EC700CCFCECDCC86
:1009F000E824F8F870F38017C3EF33FFEE33FEED11
:100A000033FDEC33FCEB33FB994002FB0FD8E9EBF1
:100A1000300105F8D0E0C448B201C0E00AEC4D4E08
:100A20004F78207B0070C2EAB5600040BCC0E01285
:100A30000A95D0F0D0E0200104C4C0E0C4B201C0E7
:100A4000F0120824D0F0D5F0EB020874120EE90978
:100A50001153098B5808E24C08DE42098F4F099761
:0F0A60004409974908F743099D550981460981C3
:100A6F00450981470B3D5008E62D08EA2E090D2B4D
:100A7F0008EE23090B200B262A08A64800000905BB
:100A8F003F3F3F00790AA2D5200314300509B91062
:100A9F00020404B9080104A2D52006025001042063
:100AAF0002689202B55F005034C0E07F2030031916
:100ABF007F30A20272067205500F120AECC202C2F8
:100ACF0006C205C2087F30800F300503E9C0E0126F
:100ADF00083B300503D0E0F9D0E0B55FCC30051707
:100AEF007F30B9100C12083B7F583004077F788095
:100AFF0003B9080312083B3002057F2D02083B7F24
:100B0F00202008F87F2B2006F322920280CF286E38
:100B1F00756C6C2900D2011208003001F8C20178FF
:100B2F005F30D50108F60208A62D50434958120828
:100B3F00002403B405004001E4900B389312082CF5
:0D0B4F00743A12082CD203755F0402098B62
:0C105900EE30E707C3E49FFFE49EFE2298
:100E9A00BB010CE58229F582E5833AF583E022500D
:100EAA0006E92582F8E622BBFE06E92582F8E22257
:0D0EBA00E58229F582E5833AF583E4932271
:100EC700BB010689828A83F0225002F722BBFE010A
:020ED700F32204
:100ED900FAE6FB0808E6F925F0F618E6CA3AF6221A
:100EE900D083D082F8E4937012740193700DA3A398
:100EF90093F8740193F5828883E4737402936860AC
:060F0900EFA3A3A380DFAB
:100FDD00EFB40A07740D120FE8740A309811A8992E
:100FED00B8130CC2983098FDA899C298B811F63074
:070FFD0099FDC299F599224C
:00000001FF
